:100000000C9465000C9482000C9482000C94F70010
:100010000C9482000C9482000C9482000C94820058
:100020000C9482000C9482000C9482000C94820048
:100030000C9482000C9482000C9482000C94820038
:100040000C94E0000C9482000C9484000C948200C8
:100050000C9482000C9482000C9482000C94820018
:100060000C9482000C9482000C9482000C94820008
:100070000C9482000C9482000C9482000C948200F8
:100080000C9482000C9482000C9482000C948200E8
:100090000C9482000C9482000C9482000C948200D8
:1000A0000C9482000C9482000C94820005A84CCD24
:1000B000B2D44EB93836A9020C50B9918688083CA2
:1000C000A6AAAA2ABE000000803F11241FBECFEFBF
:1000D000DAE0DEBFCDBF11E0A0E0B1E0EEECFCE085
:1000E00002C005900D92A630B107D9F721E0A6E035
:1000F000B1E001C01D92A838B207E1F70E940603E3
:100100000C9465060C9400001F920F920FB60F928C
:1001100011242F933F934F935F936F937F938F930C
:100120009F93AF93BF93CF93DF93EF93FF93C091D0
:100130000B01D0910C016091880070918900CC0F67
:10014000DD1FCC0FDD1FC35FDE4F80E090E00E941B
:10015000F104288139814A815B810E947F050E94D8
:10016000C50470938B0060938A0080910B0190917D
:100170000C01019690930C0180930B0120910B01CF
:1001800030910C01809104019091050128173907E5
:1001900024F010920C0110920B01FF91EF91DF916E
:1001A000CF91BF91AF919F918F917F916F915F910F
:1001B0004F913F912F910F900FBE0F901F90189568
:1001C0001F920F920FB60F9211248F939F938091DD
:1001D000090190910A01019690930A018093090107
:1001E0009F918F910F900FBE0F901F9018951F92A7
:1001F0000F920FB60F9211242F933F934F935F935B
:100200006F937F938F939F93AF93BF93CF93DF931E
:10021000EF93FF9363E085E891E00E946A026091AA
:10022000860170E0762F662780918501680F711D29
:10023000882777FD8095982F0E94F3046093000132
:1002400070930101809302019093030180918701D3
:1002500090E09093080180930701CFE6D0E0888179
:100260008B7F88832DEC3CEC4CEC5DE360910001CE
:100270007091010180910201909103010E947F051C
:1002800020E030E040EF51E40E947F059B01AC018B
:1002900060E074E284E79BE40E945D040E94C50470
:1002A0007093890060938800888184608883FF91BF
:1002B000EF91DF91CF91BF91AF919F918F917F91FE
:1002C0006F915F914F913F912F910F900FBE0F90C3
:1002D0001F901895589A599A5A9A8CE08093B800B2
:1002E000E9E6F0E080818062808380818F7E808378
:1002F000EA9A7894089584E88093BC008091BC00C9
:1003000087FFFCCF8091BB00089584E98093BC00F7
:10031000089520E030E08091BC0087FD06C02F5F8B
:100320003F4F293E83E03807B1F781E0283E334054
:1003300009F480E008958093BB0084E88093BC00BA
:100340000E948901882321F08091B900887F089557
:1003500080E008951F93CF93DF931F92CDB7DEB750
:10036000182F84EA8093BC0069830E948901698107
:10037000811104C094E99093BC0014C0812F880FB0
:10038000662331F08F5F0E949B01883451F404C0D2
:100390000E949B01803229F484E98093BC0080E0B4
:1003A00001C081E00F90DF91CF911F910895CF930D
:1003B000DF93C82FD62F60E00E94AA01882391F016
:1003C0008D2F0E949B01882369F084E98093BC00F3
:1003D00061E08C2F0E94AA01882321F0DF91CF9148
:1003E0000C947B0180E0DF91CF910895CF93DF9350
:1003F000D62FC42F60E00E94AA01811102C080E0C4
:100400000EC08D2F0E949B018823C9F38C2F0E9460
:100410009B018823A1F384E98093BC0081E0DF91F4
:10042000CF910895CF93DF9300D01F92CDB7DEB761
:100430004B836A8389830E946A0194EA9093BC008B
:1004400089816A814B819091BC0097FFFCCF90E538
:100450009093BB0094E89093BC009091BC0097FFF0
:10046000FCCF9091B900987F903229F484E9809371
:10047000BC0080E029C091E09093BB0094E8909389
:10048000BC009091BC0097FFFCCF8093BB0084E838
:100490008093BC008091BC0087FFFCCF6093BB00C1
:1004A00084E88093BC008091BC0087FFFCCF409320
:1004B000BB0084E88093BC008091BC0087FFFCCF28
:1004C00084E98093BC0081E00F900F900F90DF9142
:1004D000CF91089524EA2093BC002091BC0027FF0F
:1004E000FCCF21E52093BB0024E82093BC002091A1
:1004F000BC0027FFFCCF2091B900287F2834A9F049
:1005000024EC2093BC002091BC0027FFFCCF20915D
:10051000BB0026130AC0FC0120E030E0772767FD0E
:1005200070956150710944EC0EC084E98093BC0061
:1005300080E008955091BC0057FFFCCF5091BB0064
:1005400051932F5F3F4F261737071CF44093BC0091
:10055000F1CF44E84093BC004091BC0047FFFCCF82
:100560004091BB00FC01E20FF31F408384E98093BC
:10057000BC0081E00895F89494EA9093BC009091B7
:10058000BC0097FFFCCF90E59093BB0094E890935C
:10059000BC009091BC0097FFFCCF9091B900987F70
:1005A000903231F484E98093BC00789480E008951F
:1005B00093E09093BB0094E89093BC009091BC00B2
:1005C00097FFFCCF8093BB0084E88093BC008091B0
:1005D000BC0087FFFCCFFB01552747FD509524E861
:1005E000CF01861B970B8417950754F48191809354
:1005F000BB002093BC008091BC0087FFFCCFF0CFF4
:1006000084E98093BC00789481E008950E946A0197
:1006100080E8809361001092610080918100816088
:1006200080938100809181008B7F809381008091F5
:1006300081008D7F80938100809181008061809313
:10064000810080918100886080938100809180008A
:100650008260809380008091800081608093800020
:100660008CEB94E09093890080938800269A809187
:100670008000806280938000809180008061809300
:100680008000809191008061809391008091910021
:1006900088608093910080919000826080939000A8
:1006A000809190008E7F80939000809191008B7F4D
:1006B000809391008091910082608093910080915D
:1006C00091008E7F809391003E9A80919000806887
:1006D000809390008091900080648093900080E2ED
:1006E0009EE4909397008093960080E197E2909328
:1006F000990080939800549800910401109105018D
:100700009DE0A92E91E0B92EC0E0D0E06801EE2472
:10071000D7FCE094FE2CC017D1078CF5BE01660F04
:10072000771F882777FD8095982F0E94F3042BED83
:100730003FE049E450E40E947F052B013C01C701E2
:10074000B6010E94F3049B01AC01C301B2010E94F7
:100750005D040E94E20520E030E040E85FE30E9493
:10076000F90320E030E040E05FE30E947F05F501FF
:1007700061937193819391935F012196CCCF809186
:100780006F00846080936F0080916F00806280931F
:100790006F0043E061E581E00E941202259A2D9AE4
:1007A00078941E9B04C02D9A6A9A729803C02D9863
:1007B0006A9A729A2091090130910A018091070189
:1007C000909108012817390764F380916F008B7F9F
:1007D00080936F00109289001092880080916F00C2
:1007E000846080936F0010920A0110920901D9CFA2
:1007F0005058BB27AA270ED048C139D130F03ED17E
:1008000020F031F49F3F11F41EF42EC10EF4E09558
:10081000E7FB24C1E92F4AD180F3BA1762077307B7
:100820008407950718F071F49EF562C10EF4E09507
:100830000B2EBA2FA02D0B01B90190010C01CA019A
:10084000A0011124FF27591B99F0593F50F4503E45
:1008500068F11A16F040A22F232F342F4427585F37
:10086000F3CF469537952795A795F0405395C9F74F
:100870007EF41F16BA0B620B730B840BBAF0915007
:10088000A1F0FF0FBB1F661F771F881FC2F70EC0A6
:10089000BA0F621F731F841F48F487957795679579
:1008A000B795F7959E3F08F0B3CF9395880F08F062
:1008B0009927EE0F9795879508950CD0E6C0DED066
:1008C00040F0D5D030F021F45F3F19F0C7C051118E
:1008D00010C1CAC0EBD098F39923C9F35523B1F3E3
:1008E000951B550BBB27AA2762177307840738F09F
:1008F0009F5F5F4F220F331F441FAA1FA9F333D0FE
:100900000E2E3AF0E0E830D091505040E695001CB1
:10091000CAF729D0FE2F27D0660F771F881FBB1F6D
:10092000261737074807AB07B0E809F0BB0B802D47
:10093000BF01FF2793585F4F2AF09E3F510568F093
:100940008DC0D7C05F3FECF3983EDCF3869577957A
:100950006795B795F7959F5FC9F7880F911D969595
:10096000879597F90895E1E0660F771F881FBB1FF1
:10097000621773078407BA0720F0621B730B840B9E
:10098000BA0BEE1F88F7E095089598D088F09F572E
:1009900090F0B92F9927B751A0F0D1F0660F771FCB
:1009A000881F991F1AF0BA95C9F712C0B13081F0AB
:1009B0009FD0B1E008959CC0672F782F8827B85F3B
:1009C00039F0B93FCCF3869577956795B395D9F70C
:1009D0003EF490958095709561957F4F8F4F9F4F16
:1009E0000895E89409C097FB3EF490958095709522
:1009F00061957F4F8F4F9F4F9923A9F0F92F96E96B
:100A0000BB279395F695879577956795B795F111DF
:100A1000F8CFFAF4BB0F11F460FF1BC06F5F7F4F7C
:100A20008F4F9F4F16C0882311F096E911C077238E
:100A300021F09EE8872F762F05C0662371F096E897
:100A4000862F70E060E02AF09A95660F771F881F66
:100A5000DAF7880F9695879597F9089597F99F6724
:100A600080E870E060E008959FEF80EC0895002436
:100A70000A941616170618060906089500240A9403
:100A800012161306140605060895092E0394000C89
:100A900011F4882352F0BB0F40F4BF2B11F460FF18
:100AA00004C06F5F7F4F8F4F9F4F089557FD905841
:100AB000440F551F59F05F3F71F04795880F97FB22
:100AC000991F61F09F3F79F08795089512161306DC
:100AD0001406551FF2CF4695F1DF08C0161617060B
:100AE0001806991FF1CF8695710561050894089540
:100AF000E894BB2766277727CB0197F908950BD099
:100B0000C4CFB5DF28F0BADF18F0952309F0A6CFDF
:100B1000ABCF1124EECFCADFA0F3959FD1F3950F91
:100B200050E0551F629FF001729FBB27F00DB11D71
:100B3000639FAA27F00DB11DAA1F649F6627B00D01
:100B4000A11D661F829F2227B00DA11D621F739FEA
:100B5000B00DA11D621F839FA00D611D221F749FF8
:100B60003327A00D611D231F849F600D211D822F3F
:100B7000762F6A2F11249F5750408AF0E1F0882386
:100B80004AF0EE0FFF1FBB1F661F771F881F915093
:100B90005040A9F79E3F510570F060CFAACF5F3F4C
:100BA000ECF3983EDCF3869577956795B795F795C6
:100BB000E7959F5FC1F7FE2B880F911D969587954E
:100BC00097F908959F9305D00F9007FCEE5F28C01A
:100BD0004BCF74DFE8F3E894E0E0BB279F57F0F0D9
:100BE0002AED3FE049EC06C0EE0FBB0F661F771FF2
:100BF000881F28F0B23A62077307840728F0B25AB8
:100C0000620B730B840BE3959A9572F7803830F47E
:100C10009A95BB0F661F771F881FD2F7904813C0A5
:100C2000EF93E0FF06C0A2EA2AED3FE049EC5FEB5C
:100C3000F1DD2BDF0F90039401FC9058ECEAF0E01B
:100C40000EC09F3F31F0915020F4879577956795BE
:100C5000B795880F911D9695879597F908959F935D
:100C60008F937F936F93FF93EF939B01AC0147DFCB
:100C7000EF91FF9105D02F913F914F915F913FCF21
:100C8000DF93CF931F930F93FF92EF92DF927B013D
:100C90008C01689405C0DA2EEF013DDFFE01E89477
:100CA000A5912591359145915591AEF3EF01B2DDB6
:100CB000FE019701A801DA9479F7DF90EF90FF9099
:0E0CC0000F911F91CF91DF910895F894FFCF0F
:060CCE00000048431E0077
:00000001FF
