:100000000C941F010C943C010C943C010C943E0197
:100010000C943C010C943C010C943C010C943C016C
:100020000C943C010C943C010C94BF040C94F90416
:100030000C943C010C943C010C943C010C943C014C
:100040000C943C010C943C010C943C010C943C013C
:100050000C943C010C943C010C943C010C943C012C
:100060000C943C010C943C010C943C010C943C011C
:100070000C943C010C943C010C943C010C943C010C
:100080000C943C010C943C010C943C010C943C01FC
:100090000C943C010C943C010C943C010C943C01EC
:1000A0000C943C010C943C010C943C0167045F04EB
:1000B00057044F0447043F0437042F0427041F0448
:1000C00017040F040704FF03F703EF03E703DF033D
:1000D000D703CF03C703BF03B703AF03A7039F0330
:1000E00097038F0387037F0377036F0367035F0320
:1000F00057034F0347033F0337032F0327031F0310
:1001000017030F030703FF02F702EF02E702DF0204
:10011000D702CF02C702BF02B702AF02A7029F02F7
:1001200097028F0287027F0277026F026702C61171
:10013000B411B711BA11BD11C811C011C311084AC9
:10014000D73B3BCE016E84BCBFFDC12F3D6C7431EB
:100150009ABD56833DDA3D00C77F11BED9E4BB4C42
:100160003E916BAAAABE000000803F05A84CCDB20C
:10017000D44EB93836A9020C50B9918688083CA6ED
:10018000AAAA2ABE000000803F0000010000210250
:100190001200020000DE014300030000DA01040146
:1001A000030904C6011202030904BE010603030980
:1001B00004B40108080334003100300000000603D5
:1001C0004D003200000012034A002E0020004600BD
:1001D000690065006E00650000000403090409025F
:1001E0004300020100C032090400000102020100C4
:1001F0000524001001052401010104240206052440
:100200000600010705820310004009040100020AEC
:1002100000000007050302400000070584024000BB
:10022000001201000202000010C0167A0400010151
:100230000203010001C11201803601813600112440
:100240001FBECFEFDAE0DEBFCDBF11E0A0E0B1E02E
:10025000E2E6F1E302C005900D92A032B107D9F7B2
:1002600021E0A0E2B1E001C01D92A533B207E1F7A1
:100270000E9499130C94AF180C9400001F920F92D7
:100280000FB60F9211248F939F936A9A8EB194E0C8
:1002900089278EB981E090E090932101809320011D
:1002A0009F918F910F900FBE0F901F901895809186
:1002B000E80080FFFCCF089581E08093D70080EABA
:1002C0008093D80082E189BD09B400FEFDCF80E9AA
:1002D0008093D8001092E000109225011092220124
:1002E0008CE08093E2007894089580912501089530
:1002F0009FB7F89480912501882339F083E080939B
:10030000E9008091E80085FD03C09FBF8FEF08954D
:100310008091F1002091E80025FD03C02BE6209399
:10032000E8009FBF08959FB7F89480912501882326
:1003300031F083E08093E9008091F20001C080E019
:100340009FBF089580912501882371F08FB7F8949D
:1003500093E09093E9002BE69091E80095FF03C0AD
:100360002093E800F9CF8FBF08959091250199233C
:1003700071F09FB7F89424E02093E90020912301C5
:10038000222349F02091E80025FD03C09FBF8FEF95
:100390000895109223012091E400275E34E04091FB
:1003A000E80045FD12C09FBF9091E400921304C085
:1003B00081E080932301EBCF90912501992339F3BC
:1003C0009FB7F8943093E900EACF8093F1008091D1
:1003D000E80085FD03C08AE38093E80085E0809310
:1003E00024019FBF80E00895909125019923D1F0C9
:1003F0009FB7F89424E02093E9002091E80025FDC0
:1004000002C09FBF0FC08093F1008091E80085FD7E
:1004100003C08AE38093E80085E0809324019FBFB6
:1004200080E008958FEF0895EF92FF921F93CF938E
:10043000DF937C01CB0120912501222371F0AFB71E
:10044000F89424E02093E90020912301222349F02D
:100450002091E80025FD03C0AFBF8FEF42C210928C
:100460002301B4E0C0E4DAE315E0009709F437C2F1
:100470002091E400275E3091E80035FD12C0AFBF47
:100480003091E400321304C081E080932301E5CF72
:1004900030912501332309F3AFB7F894B093E90005
:1004A000EACF2091F2004C2F421B242F30E082171C
:1004B000930708F4482F841B910950E041345105FB
:1004C00008F0FDC14A5A5F4FFA010C942F18F7014A
:1004D00020812093F10097012F5F3F4F7901F701B1
:1004E00020812093F10097012F5F3F4F7901F701A1
:1004F00020812093F10097012F5F3F4F7901F70191
:1005000020812093F10097012F5F3F4F7901F70180
:1005100020812093F10097012F5F3F4F7901F70170
:1005200020812093F10097012F5F3F4F7901F70160
:1005300020812093F10097012F5F3F4F7901F70150
:1005400020812093F10097012F5F3F4F7901F70140
:1005500020812093F10097012F5F3F4F7901F70130
:1005600020812093F10097012F5F3F4F7901F70120
:1005700020812093F10097012F5F3F4F7901F70110
:1005800020812093F10097012F5F3F4F7901F70100
:1005900020812093F10097012F5F3F4F7901F701F0
:1005A00020812093F10097012F5F3F4F7901F701E0
:1005B00020812093F10097012F5F3F4F7901F701D0
:1005C00020812093F10097012F5F3F4F7901F701C0
:1005D00020812093F10097012F5F3F4F7901F701B0
:1005E00020812093F10097012F5F3F4F7901F701A0
:1005F00020812093F10097012F5F3F4F7901F70190
:1006000020812093F10097012F5F3F4F7901F7017F
:1006100020812093F10097012F5F3F4F7901F7016F
:1006200020812093F10097012F5F3F4F7901F7015F
:1006300020812093F10097012F5F3F4F7901F7014F
:1006400020812093F10097012F5F3F4F7901F7013F
:1006500020812093F10097012F5F3F4F7901F7012F
:1006600020812093F10097012F5F3F4F7901F7011F
:1006700020812093F10097012F5F3F4F7901F7010F
:1006800020812093F10097012F5F3F4F7901F701FF
:1006900020812093F10097012F5F3F4F7901F701EF
:1006A00020812093F10097012F5F3F4F7901F701DF
:1006B00020812093F10097012F5F3F4F7901F701CF
:1006C00020812093F10097012F5F3F4F7901F701BF
:1006D00020812093F10097012F5F3F4F7901F701AF
:1006E00020812093F10097012F5F3F4F7901F7019F
:1006F00020812093F10097012F5F3F4F7901F7018F
:1007000020812093F10097012F5F3F4F7901F7017E
:1007100020812093F10097012F5F3F4F7901F7016E
:1007200020812093F10097012F5F3F4F7901F7015E
:1007300020812093F10097012F5F3F4F7901F7014E
:1007400020812093F10097012F5F3F4F7901F7013E
:1007500020812093F10097012F5F3F4F7901F7012E
:1007600020812093F10097012F5F3F4F7901F7011E
:1007700020812093F10097012F5F3F4F7901F7010E
:1007800020812093F10097012F5F3F4F7901F701FE
:1007900020812093F10097012F5F3F4F7901F701EE
:1007A00020812093F10097012F5F3F4F7901F701DE
:1007B00020812093F10097012F5F3F4F7901F701CE
:1007C00020812093F10097012F5F3F4F7901F701BE
:1007D00020812093F10097012F5F3F4F7901F701AE
:1007E00020812093F10097012F5F3F4F7901F7019E
:1007F00020812093F10097012F5F3F4F7901F7018E
:1008000020812093F10097012F5F3F4F7901F7017D
:1008100020812093F10097012F5F3F4F7901F7016D
:1008200020812093F10097012F5F3F4F7901F7015D
:1008300020812093F10097012F5F3F4F7901F7014D
:1008400020812093F10097012F5F3F4F7901F7013D
:1008500020812093F10097012F5F3F4F7901F7012D
:1008600020812093F10097012F5F3F4F7901F7011D
:1008700020812093F10097012F5F3F4F7901F7010D
:1008800020812093F10097012F5F3F4F7901F701FD
:1008900020812093F10097012F5F3F4F7901F701ED
:1008A00020812093F10097012F5F3F4F7901F701DD
:1008B00020812093F10097012F5F3F4F7901F701CD
:1008C00020812093F10097012F5F3F4F7901209104
:1008D000E80025FFD093E80010932401C6CDAFBFF8
:1008E00080E0DF91CF911F91FF90EF9008958FB737
:1008F000F89490912401992341F094E09093E900B9
:100900009AE39093E800109224018FBF089580919C
:1009100004010895809105010895809106010895CC
:100920008091220108959FB7F894209125012223F8
:1009300039F022E02093E9003091E80035FD03C052
:100940009FBF8FEF089531EA3093F10030E230938A
:10095000F1001092F1001092F1001092F10010924B
:10096000F1002093F1001092F1008093F1001092B9
:10097000F1008AE38093E8009FBF80E008951F9212
:100980000F920FB60F9211248F939F938091E100E5
:100990001092E10083FF11C01092E90091E0909362
:1009A000EB001092EC0092E19093ED0098E09093B0
:1009B000F000109225011092220182FF13C0809155
:1009C0002501882379F080912401882359F08150F2
:1009D00080932401811106C084E08093E9008AE3BA
:1009E0008093E8009F918F910F900FBE0F901F9002
:1009F00018951F920F920FB60F921124EF92FF924B
:100A00000F931F932F933F934F935F936F937F9316
:100A10008F939F93AF93BF93EF93FF93CF93DF9306
:100A20001F92CDB7DEB71092E9008091E80083FFF6
:100A300014C19091F1008091F1003091F10020916A
:100A4000F100E32EF12CF22A0091F1002091F10047
:100A500010E0122B2091F1006091F10032EF309301
:100A6000E800863009F046C036E08AE891E0FC01F3
:100A7000459154914E155F0539F4FC01329645912C
:100A800054914017510721F00796315081F7E5C086
:100A9000FC01349645915491FC013696849130E0E6
:100AA000362B2F3F310519F010F02FEF30E02817CB
:100AB00008F4822F3EEF9091E800292F2570D9F39A
:100AC00092FDCEC0982F813108F090E1FA01292FD4
:100AD000222331F064916093F10021503196F8CFD8
:100AE000490F511D891B3093E8008111E4CF9031EB
:100AF00011F3B6C0853051F48EEF8093E8000E9468
:100B000057018E2D80688093E300AAC0893059F583
:100B1000911180C0E09225011092220110922401CF
:100B20008EEF8093E80041E083E392E04093E90098
:100B30009C012F5F3F4FFC0154915093EB005523D4
:100B400059F0F90124912093EC009C012D5F3F4F57
:100B5000319684918093ED004F5F453011F0C901CB
:100B6000E5CF8EE175C0883051F4903809F052C05D
:100B70000E945701809125018093F10047C0813286
:100B800079F4913A09F046C00E945701E0E0F1E0A3
:100B900081918093F10081E0E730F807C9F736C012
:100BA000803299F49132B1F58091E80082FFFCCF58
:100BB000E0E0F1E08091F100819381E0E730F80717
:100BC000C9F78BEF8093E80021C0823241F4913263
:100BD00009F043C0E09222010E94570117C0811121
:100BE00019C099830E9457019981923851F400935A
:100BF000E9008091EB0085FB882780F91092E900DD
:100C000001C080E08093F1001092F1008EEF80939C
:100C1000E80026C0282F2D7F2130F9F49230E9F426
:100C2000EF28D9F40F779FEF900F9430B0F49EEF38
:100C30009093E8000093E900833079F089E1809394
:100C4000EB0081E090E0002E01C0880F0A94EAF7E3
:100C50008093EA001092EA0003C081E28093EB00E7
:100C60000F90DF91CF91FF91EF91BF91AF919F9145
:100C70008F917F916F915F914F913F912F911F9134
:100C80000F91FF90EF900F900FBE0F901F9018954F
:100C90001F93CF93DF93EC01FE011491112351F0C8
:100CA0001A3019F48DE00E94B501812F0E94B50120
:100CB0002196F2CFDF91CF911F9108958A3010F4E1
:100CC00090E301C097E3890F0C94B501CF93C82F2F
:100CD00082958F700E945E068C2F8F70CF910C943E
:100CE0005E06CF93C82F892F0E9466068C2FCF9166
:100CF0000C9466060C946606EF92FF920F931F9376
:100D0000CF93DF93CDB7DEB727970FB6F894DEBF4A
:100D10000FBECDBF8E010F5F1F4F27E0F80111926C
:100D20002A95E9F74AE0B8010E9449187E01F8E0E7
:100D3000EF0EF11CF80181918F0181110E94B50124
:100D40000E151F05B9F727960FB6F894DEBF0FBE34
:100D5000CDBFDF91CF911F910F91FF90EF9008953C
:100D6000EF92FF920F931F93CF93DF9300D000D0A9
:100D700000D0CDB7DEB78E010F5F1F4F26E0F80120
:100D800011922A95E9F74AE0B8010E9485187E0180
:100D9000F6E0EF0EF11CF80181918F0181110E94A4
:100DA000B5010E151F05B9F726960FB6F894DEBFEC
:100DB0000FBECDBFDF91CF911F910F91FF90EF90AC
:100DC0000895EF92FF920F931F93CF93DF93CDB7C8
:100DD000DEB72B970FB6F894DEBF0FBECDBF8E01E6
:100DE0000F5F1F4F2BE0F80111922A95E9F72AE0D7
:100DF000A8010E9454187E01FCE0EF0EF11CF801DE
:100E000081918F0181110E94B5010E151F05B9F75F
:100E10002B960FB6F894DEBF0FBECDBFDF91CF91FA
:100E20001F910F91FF90EF900895EF92FF920F9313
:100E30001F93CF93DF93CDB7DEB72B970FB6F89400
:100E4000DEBF0FBECDBF8E010F5F1F4F2BE0F8013D
:100E500011922A95E9F72AE0A8010E9463187E0101
:100E6000FBE0EF0EF11CF80181918F0181110E94CE
:100E7000B5010E151F05B9F72B960FB6F894DEBF16
:100E80000FBECDBFDF91CF911F910F91FF90EF90DB
:100E90000895CF93DF9300D01F92CDB7DEB74B8379
:100EA0006A8389830E943D0894EA9093BC008981FB
:100EB0006A814B819091BC0097FFFCCF90E59093A5
:100EC000BB0094E89093BC009091BC0097FFFCCFCE
:100ED0009091B900987F903229F484E98093BC0006
:100EE00080E029C091E09093BB0094E89093BC000F
:100EF0009091BC0097FFFCCF8093BB0084E8809367
:100F0000BC008091BC0087FFFCCF6093BB0084E8ED
:100F10008093BC008091BC0087FFFCCF4093BB0056
:100F200084E88093BC008091BC0087FFFCCF84E9FB
:100F30008093BC0081E00F900F900F90DF91CF91D4
:100F4000089524EA2093BC002091BC0027FFFCCF29
:100F500021E52093BB0024E82093BC002091BC0035
:100F600027FFFCCF2091B900287F2834A9F024EC7A
:100F70002093BC002091BC0027FFFCCF2091BB0038
:100F800026130AC0FC0120E030E0772767FD70954A
:100F90006150710944EC0EC084E98093BC0080E08C
:100FA00008955091BC0057FFFCCF5091BB00519366
:100FB0002F5F3F4F261737071CF44093BC00F1CF3B
:100FC00044E84093BC004091BC0047FFFCCF4091F7
:100FD000BB00FC01E20FF31F408384E98093BC0057
:100FE00081E00895F89494EA9093BC009091BC003D
:100FF00097FFFCCF90E59093BB0094E89093BC00E2
:101000009091BC0097FFFCCF9091B900987F9032EF
:1010100031F484E98093BC00789480E0089593E0F3
:101020009093BB0094E89093BC009091BC0097FF14
:10103000FCCF8093BB0084E88093BC008091BC000F
:1010400087FFFCCFFB01552747FD509524E8CF01D2
:10105000861B970B8417950754F481918093BB00EE
:101060002093BC008091BC0087FFFCCFF0CF84E9C7
:101070008093BC00789481E00895589A599A5A9ABE
:101080008CE08093B800E9E6F0E0808180628083A4
:1010900080818F7E8083EA9A7894089584E8809393
:1010A000BC008091BC0087FFFCCF8091BB000895FD
:1010B00084E98093BC00089520E030E08091BC007A
:1010C00087FD06C02F5F3F4F293E83E03807B1F709
:1010D00081E0283E334009F480E008958093BB000E
:1010E00084E88093BC000E945C08882321F08091F2
:1010F000B900887F089580E008951F93CF93DF9310
:101100001F92CDB7DEB7182F84EA8093BC006983A5
:101110000E945C086981811104C094E99093BC002D
:1011200014C0812F880F662331F08F5F0E946E08F4
:10113000883451F404C00E946E08803229F484E996
:101140008093BC0080E001C081E00F90DF91CF91DF
:101150001F910895CF93DF93C82FD62F60E00E9490
:101160007D08882391F08D2F0E946E08882369F0F6
:1011700084E98093BC0061E08C2F0E947D08882365
:1011800021F0DF91CF910C944E0880E0DF91CF9158
:101190000895CF93DF93D62FC42F60E00E947D087F
:1011A000811102C080E00EC08D2F0E946E0888233E
:1011B000C9F38C2F0E946E088823A1F384E98093E1
:1011C000BC0081E0DF91CF910895CF93DF93D82FBA
:1011D000C62F843010F080E05BC06430E0F70E94DE
:1011E0003D082FEF85EA9EE0215080409040E1F7D6
:1011F00000C0000065E789E60E94AA08883659F712
:1012000041E06BE689E60E94C9084D2F440F440F68
:10121000440F6CE189E60E94C9084C2F440F440F2B
:10122000440F6BE189E60E94C90842E067E389E662
:101230000E94C90840E062E08EE10E94C90840E0D7
:1012400067E389E60E94C9084EE164E389E60E94EB
:10125000C90841E067E689E60E94C9084DE164E2F9
:1012600089E60E94C9084EE965E289E60E94C9083C
:1012700043E066E289E60E94C90846E967E289E63A
:101280000E94C90840E26AE689E60E94C90881E036
:10129000DF91CF910895EF92FF920F931F93CF9319
:1012A000DF93CDB7DEB765970FB6F894DEBF0FBEFC
:1012B000CDBF8C01CE0101967C019EE4692F89E6A9
:1012C0009D8B0E94AA08F70181937F019D8991500F
:1012D0009A33A1F78F859889F801958384838F814C
:1012E00098859387828789819A81918B808B898960
:1012F0009A899383828389859A85918780878B8158
:101300009C81978786878B899C89918380838B8535
:101310009C85978386838D819E819587848781E0D4
:1013200065960FB6F894DEBF0FBECDBFDF91CF91AB
:101330001F910F91FF90EF900895EF92FF920F93FE
:101340001F93CF93DF93CDB7DEB727970FB6F894EF
:10135000DEBF0FBECDBF8C01CE0101967C0190E4B3
:10136000692F89E69F830E94AA08F70181937F0174
:101370009F8191509A33A1F789819A81F8019583D1
:1013800084838B819C81938382838D819E819183D1
:10139000808381E027960FB6F894DEBF0FBECDBFE5
:1013A000DF91CF911F910F91FF90EF900895EF92F1
:1013B000FF920F931F93CF93DF93CDB7DEB727979D
:1013C0000FB6F894DEBF0FBECDBF8C01CE010196E3
:1013D0007C0198E4692F89E69F830E94AA08F7019F
:1013E00081937F019F8191509234A1F789819A81E5
:1013F000F801958384838B819C81938382838D8183
:101400009E819183808381E027960FB6F894DEBF9A
:101410000FBECDBFDF91CF911F910F91FF90EF9045
:101420000895EF92FF920F931F93CF93DF93CDB761
:10143000DEB727970FB6F894DEBF0FBECDBF8C0185
:10144000CE0101967C019EE4692F89E69F830E946C
:10145000AA08F70181937F019F8191509834A1F7E9
:1014600089819A81F801958384838B819C81938300
:1014700082838D819E819183808381E027960FB640
:10148000F894DEBF0FBECDBFDF91CF911F910F91BA
:10149000FF90EF90089520E030E08091BC0087FD40
:1014A00006C02F5F3F4F293E83E03807B1F781E048
:1014B000283E334009F480E008958093BB0084E81F
:1014C0008093BC000E944B0A882319F08091B900D8
:1014D000887F0895CF93C82F84EA8093BC000E9430
:1014E0004B0A882361F08C2F880F0E945D0A80329E
:1014F00029F484E98093BC0080E001C081E0CF91B1
:1015000008950E943D0888E50E946A0A811102C080
:1015100080E0089580E30E945D0A8823C9F381E09A
:101520000E945D0A8823A1F384E98093BC008FE3C5
:101530009CE90197F1F700C0000088E50E946A0A63
:10154000882331F380E00E945D0A882309F380E05C
:101550000E945D0A8823E1F280E00E945D0A8823F0
:10156000B9F280E00E945D0A882391F280E00E9437
:101570005D0A882369F280E00E945D0A882341F2B7
:1015800080E00E945D0A882319F280E90E945D0ACA
:10159000882309F4BDCF84E98093BC008FE39CE9E4
:1015A0000197F1F700C0000088E50E946A0A8823CD
:1015B00009F4AECF87E00E945D0A882309F4A8CF22
:1015C00080E00E945D0A882309F4A2CF81E40E9492
:1015D0005D0A882309F49CCF84E98093BC008FE3E3
:1015E0009CE90197F1F700C0000088E50E946A0AB3
:1015F000882309F48DCF8AE10E945D0A882309F4CB
:1016000087CF80E40E945D0A882309F481CF80E0BF
:101610000E945D0A882309F47BCF84E98093BC0093
:101620008FE39CE90197F1F700C0000088E50E9474
:101630006A0A882309F46CCF83E30E945D0A882339
:1016400009F466CF83E00E945D0A882309F460CF25
:1016500084E98093BC008FE39CE90197F1F700C017
:10166000000088E50E946A0A882309F451CF80E3CC
:101670000E945D0A882309F44BCF88E00E945D0A2E
:10168000882309F445CF84E98093BC008FE39CE96B
:101690000197F1F700C0000081E00895CF93C82FB3
:1016A00084EA8093BC000E944B0A882369F08C2F47
:1016B000880F8F5F0E945D0A883429F484E9809343
:1016C000BC0080E001C081E0CF910895EF92FF92CD
:1016D0000F931F93CF93DF93CDB7DEB760970FB60D
:1016E000F894DEBF0FBECDBF7C018E010F5F1F4F90
:1016F00080E1F80111928A95E9F788E50E946A0A6B
:10170000811102C080E05EC086E30E945D0A8823EA
:10171000C9F384E98093BC00F5E8FA95F1F700007D
:1017200088E50E944E0B882369F3F8019E01205F33
:101730003F4F94EC9093BC008091BC0087FFFCCF9E
:101740008091BB008193E217F307A1F784E88093AF
:10175000BC008091BC0087FFFCCF8091BB00888BD0
:1017600084E98093BC00DE01149687016C91762F8A
:101770007073AD0142505109FA01808190E0F0E1AF
:101780007F9F800D911D1124F80191838083762F16
:10179000707C4F5F5F4FFA01808190E0F4E07F9FA3
:1017A000800D911D1124F801938382836F70862F21
:1017B00090E09583848313960A5F1F4FA217B307A7
:1017C000A9F681E060960FB6F894DEBF0FBECDBFDC
:1017D000DF91CF911F910F91FF90EF90089584E9D1
:1017E0008093BC000895EF92FF920F931F93CF93C5
:1017F000DF9300D000D0CDB7DEB77C018A01621B39
:10180000730B882777FD8095982F0E94BF159B0149
:10181000AC01B701601B710B882777FD8095982F6D
:1018200029833A834B835C830E94BF1529813A81C7
:101830004B815C810E94B2160E948C15CB010F90E7
:101840000F900F900F90DF91CF911F910F91FF900C
:10185000EF9008950F931F93CF93DF93DA0120E861
:1018600031ECE0E0F0E0E617F70774F4EC014991A1
:101870005991CE012417350714F0A90102C01E2F7B
:101880000F2F31969A01EFCF37FD0AC011963C9386
:101890002E9312961C93129713960C9381E001C01D
:1018A00080E0DF91CF911F910F9108950F931F93C7
:1018B000CF93DF93DA0120E03DE7E0E0F0E0E617C8
:1018C000F70774F4EC0149915991CE01421753077F
:1018D00014F0A90102C01E2F0F2F31969A01EFCFED
:1018E0002130DDE73D0754F411963C932E93129678
:1018F0001C93129713960C9381E001C080E0DF9156
:10190000CF911F910F9108952F923F924F925F9226
:101910006F927F928F929F92AF92BF92CF92DF92FF
:10192000EF92FF920F931F93CF93DF93CDB7DEB764
:10193000C256D1090FB6F894DEBF0FBECDBF6F9669
:101940009FAF8EAF6F97CE0149960E94660B898C30
:101950009A8C6B8C7C8C4F8C58A0A9A0BAA02DA01F
:101960003EA00FA118A5EBA4FCA4CDA4DEA427964D
:101970009FAE8EAE279729965FAE4EAE29972B96D7
:101980003FAE2EAE2B972D96FFAEEEAE2D977EAED0
:101990006DAE2196BFAEAEAE219723961FAF0EAFB0
:1019A00023972596DFAECEAE25979501A201B30110
:1019B000C4010E94F30B6B969FAF8EAF6B9798019B
:1019C000A101B301C4010E94F30B67969FAF8EAFD4
:1019D00067979601A701B301C4010E94F30B4C0164
:1019E0009801A101B501C2010E94F30B3C019601CF
:1019F000A701B501C2010E94F30B5C019601A7018A
:101A0000B801C1010E94F30B6B962EAD3FAD6B97F1
:101A10003AAB29AB6796EEADFFAD6797FCABEBAB8E
:101A20009EAA8DAA78AE6FAABAAEA9AE9CAF8BAFB4
:101A300088E1E7E0F1E0DE01119601900D928A95D0
:101A4000E1F7AE014F5A5F4F66E070E0CE01C196FC
:101A50000E942A0CAE01435B5F4F66E070E0CE014E
:101A6000C1960E94560C6596AEADBFAD6597619666
:101A7000EEADFFAD6197AA0FBB1FAA0FBB1F21E000
:101A800030E02C0F3D1FA20FB31F4D915C911197B9
:101A900012968D919C911397EE0FFF1FEE0FFF1F73
:101AA000E20FF31F628173810190F081E02D9A01B2
:101AB000220F331F880F991F4E175F0719F0461723
:101AC0005707F9F4E5E4F0E0EC0FFD1FE20FF31F18
:101AD00060817181E1E0F0E0EC0FFD1FE20FF31F88
:101AE00004AD15ADE5E4F0E0EC0FFD1FE80FF91FC4
:101AF000E080F180E1E0F0E0EC0FFD1FE80FF91F5E
:101B00001EC0E5E4F0E0EC0FFD1FE80FF91F608157
:101B10007181E1E0F0E0EC0FFD1FE80FF91F04AD6B
:101B200015ADE5E4F0E0EC0FFD1FE20FF31FE080E0
:101B3000F180E1E0F0E0EC0FFD1FE20FF31F24ACB9
:101B400035AC882777FD8095982F0E94BF154B01F3
:101B50005C01B701882777FD8095982F0E94BF15FB
:101B60009B01AC01C501B4010E945B1420E030E090
:101B700040E05FE30E9447176B017C01B8018827B2
:101B800077FD8095982F0E94BF152B013C01B10174
:101B9000882777FD8095982F0E94BF159B01AC0187
:101BA000C301B2010E945B1420E030E040E05FE33B
:101BB0000E94471769966CAF7DAF8EAF9FAF699754
:101BC0009B01AC01C301B2010E945A142B013C01DC
:101BD000A7019601C501B4010E945A14A301920104
:101BE0000E94CE144B015C01A701960160E070E0F9
:101BF00080E094E40E945A146B017C01C501B40199
:101C00000E9421156D966CAF7DAF8EAF9FAF6D9723
:101C100069962CAD3DAD4EAD5FAD699760E070E06B
:101C200080EC93E40E945A142B013C01C501B401DD
:101C30000E94AA1769966CAF7DAF8EAF9FAF699770
:101C40006D962CAD3DAD4EAD5FAD6D97C701B60144
:101C50000E944717A3966CAF7DAF8EAF9FAFA3973F
:101C600069962CAD3DAD4EAD5FAD69975058C3013F
:101C7000B2010E9447179B01AC01A3966CAD7DADEC
:101C80008EAD9FADA3970E945B1420E030E040E052
:101C900054E40E945B149B01AC0160E070E080E0C2
:101CA00094E40E945A1420E030E040E251E40E94A3
:101CB000471720E030E040EE51E40E9424150E94D6
:101CC0008C156F96EEADFFAD6F977183608369964B
:101CD0002CAD3DAD4EAD5FAD6997C701B6010E9419
:101CE00047176B017C016D962CAD3DAD4EAD5FADE0
:101CF0006D97C301B2010E9447179B01AC01C70158
:101D0000B6010E945B1420E030E040EC53E40E94F6
:101D10005B1420E030E040EC53E40E945A1420E0D1
:101D200030E040E251E40E94471720E030E040EE0E
:101D300051E40E9424150E948C156F96EEADFFAD04
:101D40006F977383628320EE3EE245E652E4C5015D
:101D5000B4010E9447170E948C156F96EEADFFAD3F
:101D60006F977583648381E0CE59DF4F0FB6F89487
:101D7000DEBF0FBECDBFDF91CF911F910F91FF90BE
:101D8000EF90DF90CF90BF90AF909F908F907F901B
:101D90006F905F904F903F902F900895249A259ACE
:101DA000269A3E9A209A219A229A239AA1E8B0E094
:101DB0008C918B7F8C938C918D7F8C938C91816097
:101DC0008C93E1E9F0E080818B7F808380818D7F3F
:101DD00080838081816080838C9180618C938C91E1
:101DE00088608C93A0E8B0E08C9182608C938C9199
:101DF00081608C9380818061808380818860808312
:101E0000E0E9F0E080818260808380818E7F808342
:101E10008C9180628C938C918F7E8C938081806872
:101E2000808380818F7B808328EB3BE03093890027
:101E30002093880085E090E090938B0080938A0047
:101E40003093970020939600909399008093980088
:101E50000895CF92DF92EF92FF92CF93DF93EB0141
:101E600069017A01892B41F56091880070918900A0
:101E700080E090E00E94BD159B01AC01C701B60156
:101E80000E9447170E94911570938B0060938A00FF
:101E900025B181E090E00C2E01C0880F0A94EAF78A
:101EA000282B25B995B1CD2B11F48DEF01C08EEF04
:101EB000892385B92C9A3FC0609196007091970054
:101EC00080E090E00E94BD15A70196010E9447178F
:101ED0000E9491157093990060939800E5B1209746
:101EE00019F462E070E002C060E070E0AE01440FFF
:101EF000551F9A012C0F3D1F260F371F81E090E0E0
:101F000001C0880F2A95EAF78E2B85B925B1CD2B14
:101F100019F483E090E002C080E090E0480F591F80
:101F200081E090E0042E01C0880F0A94EAF78095C2
:101F3000822385B92D9ADF91CF91FF90EF90DF90AA
:101F4000CF9008954F925F926F927F928F929F925F
:101F5000AF92BF92CF92DF92EF92FF920F931F93B7
:101F6000CF93DF93EC016B0149015A01A80197015E
:101F7000C501B4010E9447172B013C0181E090E0AC
:101F8000209711F080E090E0A5019401B6010E9435
:101F9000290FA3019201B601CE01DF91CF911F91CC
:101FA0000F91FF90EF90DF90CF90BF90AF909F90F8
:101FB0008F907F906F905F904F900C94290F8F922D
:101FC0009F92AF92BF92CF92DF92EF92FF920F93C8
:101FD0001F93CF93DF938C014B017A01BC01A401C5
:101FE000570120E030E0E0E0F0E080E090E0A0E0A9
:101FF000B0E0EB01C990D990BE018C0D9D1DEA01A6
:10200000C990D990AE01EC0DFD1DE501C990D990A4
:102010005E012C0D3D1D1196AB30B10551F74AE024
:10202000C42ED12CB6010E941B18D80157967C9360
:102030006E935697CF01B6010E941B18E4017F8B67
:102040006E8BC901B6010E941B18F701778B668B56
:10205000DF91CF911F910F91FF90EF90DF90CF9084
:10206000BF90AF909F908F900895ECE7F0E0808153
:102070008F778083808180648083EAE7F0E08081CD
:10208000846080838081826080838081816080839E
:10209000808180628083089580917A008F77809319
:1020A0007A0080917D00826080937D0080917B002A
:1020B000806280937B0080917C008B7F80937C008A
:1020C00080917C008D7F80937C0080917C0081607A
:1020D00080937C0080917A00806880937A00809160
:1020E0007A00806480937A0080917A0084FFFCCF2C
:1020F00080917A00806180937A00089580917A00BF
:102100008F7780937A0080917E00826080937E003A
:1021100080917B008F7D80937B0080917C008B7F02
:1021200080937C0080917C008D7F80937C008091E7
:102130007C00816080937C0080917A00806880932D
:102140007A0080917A00806480937A0080917A008E
:1021500084FFFCCF80917A00806180937A0008959B
:1021600080917A008F7780937A0080917E008061E1
:1021700080937E0080917B008F7D80937B00809197
:102180007C00846080937C0080917C008D7F8093B4
:102190007C0080917C008E7F80937C0080917A000F
:1021A000806880937A0080917A00806480937A00BE
:1021B00080917A0084FFFCCF80917A0080618093C7
:1021C0007A00089580917A008F7780937A008091C9
:1021D0007E00806280937E0080917B008F7D809363
:1021E0007B0080917C00846080937C0080917C00E7
:1021F0008D7F80937C0080917C00816080937C0047
:1022000080917A00806880937A0080917A0080645F
:1022100080937A0080917A0084FFFCCF80917A00CD
:10222000806180937A00089580917A008F778093FF
:102230007A0080917E00806480937E0080917B0094
:102240008F7D80937B0080917C00846080937C00F4
:1022500080917C00826080937C0080917C008E7FE6
:1022600080937C0080917A00806880937A008091CE
:102270007A00806480937A0080917A0084FFFCCF9A
:1022800080917A00806180937A00089580917A002D
:102290008F7780937A0080917E00806880937E00A3
:1022A00080917B008F7D80937B0080917C00846097
:1022B00080937C0080917C00826080937C00809180
:1022C0007C00816080937C0080917A00806880939C
:1022D0007A0080917A00806480937A0080917A00FD
:1022E00084FFFCCF80917A00806180937A0008950A
:1022F00080917A008F7780937A0080917D0084604E
:1023000080937D0080917B00806280937B00809130
:102310007C008B7F80937C0080917C008260809326
:102320007C0080917C008E7F80937C0080917A007D
:10233000806880937A0080917A00806480937A002C
:1023400080917A0084FFFCCF80917A008061809335
:102350007A000895805A910988309105C8F4895609
:102360009F4FFC010C942F1822E030E011C023E0B5
:1023700030E00EC024E030E00BC025E030E008C0C3
:1023800026E030E005C027E030E002C021E030E088
:10239000C90108952F923F924F925F926F927F9260
:1023A0008F929F92AF92BF92CF92DF92EF92FF9265
:1023B0000F931F93CF93DF9300D000D000D0CDB701
:1023C000DEB729833A834B835C830E944C100091D3
:1023D0007800109179000E947E1020907800309053
:1023E00079000E94B010E0907800F09079000E948F
:1023F000E210A0907800B09079000E9414118090B3
:102400007800909079000E944611C0907800D0909A
:1024100079000E947811809178009091790029814B
:102420003A814B815C8165E8A61663E0B60634F01C
:10243000E5E8CE16E3E0DE060CF081C0B401601BD7
:10244000710B655D7E4F6735724030F4E814F90416
:102450001CF480179107A4F16DEBE61662E0F60616
:102460001CF08E149F04DCF1EDEB8E16E2E09E066C
:102470001CF0E814F904DCF18132F3E09F0724F04A
:1024800008171907E4F104C00132134024F03FC0DB
:1024900080179107E4F1E9EE2E16E3E03E060CF416
:1024A00043C0821593050CF03FC0E214F304E4F539
:1024B000412C512C32012DEC3CEC4CEC5EE30AC07B
:1024C000412C512C20E8622E2FE3722E2DEC3CEC97
:1024D0004CE45FE381E090E09E838D8325C0412C36
:1024E000512C320126E636E646E65FE3F3CF9DEC5B
:1024F000492E9CEC592E652C9EE3792EE7CF412C7A
:10250000512C320126E636E646E65FE30BC08DEC41
:10251000482E8CEC582E652C8EE3782E2DEC3CEC5E
:102520004CE45FE31E821D828301720161E070E072
:102530008D819E810E94A20F80E090E002C081E028
:1025400090E026960FB6F894DEBF0FBECDBFDF91A8
:10255000CF911F910F91FF90EF90DF90CF90BF90A0
:10256000AF909F908F907F906F905F904F903F9033
:102570002F9008958F929F92AF92BF92CF92DF9249
:10258000EF92FF920F931F93CF93DF93EC014A01D9
:10259000C90157019A01AB01B8010E94F30B2AE56A
:1025A0002C9DC0012D9D900D11248E159F051CF4AE
:1025B0000815190539F4C12CD12C20E8E22E2FE39F
:1025C000F22E03C0C12CD12C76010734110504F57D
:1025D0000A3B1F4F24F16CE47FEF0E941B186A0D29
:1025E0007B1D77FF03C07195619571096150710979
:1025F00077FF03C0719561957109882777FD8095F4
:10260000982F0E94BF1503E313E323E33FE312C0B7
:1026100060E070E080E89FE36B017C0107C060E050
:1026200070E080E89FE3C12CD12C76010DEC1CEC0E
:102630002CEC3EE3088319832A833B83CC82DD8222
:10264000EE82FF82688779878A879B8780E090E0A7
:10265000A0E8BFE38C879D87AE87BF87DF91CF91CE
:102660001F910F91FF90EF90DF90CF90BF90AF90B0
:102670009F908F9008958F929F92AF92BF92CF922A
:10268000DF92EF92FF920F931F93CF93DF93CDB71B
:10269000DEB760970FB6F894DEBF0FBECDBF8B01DB
:1026A0007A0169019C0142EE5FEF1C141D041CF4C9
:1026B0006DE87FEF02C063E770E0CE0101960E94F3
:1026C000BA12C984DA84EB84FC8429813A814B8173
:1026D0005C816D857E858F8598892D873E874F87A4
:1026E000588B0E948C154B015C016D817E818F811E
:1026F00098850E948C15DC01CB01870176012D8520
:102700003E854F855889B4010E94A20F60960FB68E
:10271000F894DEBF0FBECDBFDF91CF911F910F9117
:10272000FF90EF90DF90CF90BF90AF909F908F90F1
:102730000895CF93DF93CDB7DEB7C854D1090FB654
:10274000F894DEBF0FBECDBF80E885BF85BF6E9A0F
:10275000769880936100109261000E943D080E946B
:102760005C010E94CE0E0E9435104AE06CE181E0CF
:102770000E9449070E94810A78942DE2A22EB12C72
:10278000AC0EBD1E86E1A80EB11C80912001909177
:102790002101892B89F16AE08BE291E00E94A10777
:1027A00080912B0190E090932701809326018091E6
:1027B0002601909127010E94AA116C010AE010E005
:1027C000CE018D5B9F4F0E94840C25968EAD9FADF0
:1027D0002597015011090115110591F718161906D1
:1027E00024F088248394912C03C088248A94982C04
:1027F00010922101109220018E01035D1F4FFE01F6
:1028000077963F01CE0101967C01CE018D5B9F4FF3
:102810000E94840C25968EAD9FAD2597F80181937B
:1028200091938F0127968EAD9FAD2797F3018193EA
:1028300091933F0129968EAD9FAD2997F701819322
:1028400091937F010A151B0501F7AE014F5F5F4FA2
:10285000BE01695E7F4FCE018D960E94DF0F2596E7
:102860000EAD1FAD2597EDA4FEA46F88788CF2E025
:10287000CF16D10461F46E9A76980E94CA11892B02
:1028800031F09401A301B701C8010E943B13C601B6
:102890000597039708F079CFE12CF12C8701A80167
:1028A000970160E070E080E090E00E94A20F6E9AD5
:1028B00076986BCF5058BB27AA270ED0FFC1C8D13E
:1028C00030F0CDD120F031F49F3F11F41EF498C1C7
:1028D0000EF4E095E7FB8EC1E92F12D280F3BA1710
:1028E000620773078407950718F071F49EF52AC2F2
:1028F0000EF4E0950B2EBA2FA02D0B01B90190011B
:102900000C01CA01A0011124FF27591B99F0593F5E
:1029100050F4503E68F11A16F040A22F232F342FA6
:102920004427585FF3CF469537952795A795F040F4
:102930005395C9F77EF41F16BA0B620B730B840B09
:10294000BAF09150A1F0FF0FBB1F661F771F881FC1
:10295000C2F70EC0BA0F621F731F841F48F4879519
:1029600077956795B795F7959E3F08F0B3CF939508
:10297000880F08F09927EE0F97958795089568D1ED
:1029800058F080E891E009F49EEF69D128F040E822
:1029900051E059F45EEF09C033C1D4C1E92FE078AA
:1029A000AFD168F3092E052AC1F326173707480768
:1029B000590738F00E2E07F8E02569F0E025E064AD
:1029C0000AC0EF6307F8009407FADB01B9019D0123
:1029D000DC01CA01AD01EF9346D070D10AD05F91FE
:1029E000552331F02BED3FE049E450FD49EC63CF36
:1029F0000895DF93DD27B92FBF7740E85FE3161610
:102A0000170648075B0710F4D92F04D29F938F93C2
:102A10007F936F93E7D2EEE3F1E0F5D04FD12F91A2
:102A20003F914F915F913FD2DD2349F09058A2EA48
:102A30002AED3FE049EC5FE3D0785D274DDFDF9181
:102A40003DC115D1E3954BC10CD038C108D140F040
:102A5000FFD030F021F45F3F19F0CCC0511173C1A9
:102A6000CFC04ED198F39923C9F35523B1F3951BE9
:102A7000550BBB27AA2762177307840738F09F5F9F
:102A80005F4F220F331F441FAA1FA9F333D00E2E0E
:102A90003AF0E0E830D091505040E695001CCAF77B
:102AA00029D0FE2F27D0660F771F881FBB1F261740
:102AB00037074807AB07B0E809F0BB0B802DBF0113
:102AC000FF2793585F4F2AF09E3F510568F092C050
:102AD0003AC15F3FECF3983EDCF3869577956795B6
:102AE000B795F7959F5FC9F7880F911D96958795C4
:102AF00097F90895E1E0660F771F881FBB1F6217E3
:102B000073078407BA0720F0621B730B840BBA0BA0
:102B1000EE1F88F7E095089504D06894B11113C1B1
:102B20000895F6D088F09F5790F0B92F9927B751A4
:102B3000A0F0D1F0660F771F881F991F1AF0BA9581
:102B4000C9F712C0B13081F0FDD0B1E00895FAC0EC
:102B5000672F782F8827B85F39F0B93FCCF3869577
:102B600077956795B395D9F73EF4909580957095D4
:102B700061957F4F8F4F9F4F0895E89409C097FB51
:102B80003EF490958095709561957F4F8F4F9F4F44
:102B90009923A9F0F92F96E9BB279395F695879588
:102BA00077956795B795F111F8CFFAF4BB0F11F44B
:102BB00060FF1BC06F5F7F4F8F4F9F4F16C08823F2
:102BC00011F096E911C0772321F09EE8872F762F28
:102BD00005C0662371F096E8862F70E060E02AF069
:102BE0009A95660F771F881FDAF7880F9695879555
:102BF00097F9089597F99F6780E870E060E008957D
:102C00009FEF80EC0895DF93CF931F930F93FF9274
:102C1000EF92DF927B018C01689405C0DA2EEF0100
:102C200042D1FE01E894A5912591359145915591A8
:102C3000AEF3EF0151DEFE019701A801DA9479F7B6
:102C4000DF90EF90FF900F911F91CF91DF9108954A
:102C500000240A941616170618060906089500247B
:102C60000A9412161306140605060895C9CF50D00B
:102C7000E8F3E894E0E0BB279F57F0F02AED3FE04F
:102C800049EC06C0EE0FBB0F661F771F881F28F0A8
:102C9000B23A62077307840728F0B25A620B730BCB
:102CA000840BE3959A9572F7803830F49A95BB0FB0
:102CB000661F771F881FD2F7904899C1092E039489
:102CC000000C11F4882352F0BB0F40F4BF2B11F419
:102CD00060FF04C06F5F7F4F8F4F9F4F0895EF934A
:102CE000E0FF06C0A2EA2AED3FE049EC5FEBF4DD2D
:102CF000E5DF0F90039401FC9058EBE6F1E08AC108
:102D000057FD9058440F551F59F05F3F71F047959C
:102D1000880F97FB991F61F09F3F79F08795089581
:102D2000121613061406551FF2CF4695F1DF08C0A0
:102D3000161617061806991FF1CF869571056105BD
:102D400008940895E894BB2766277727CB0197F965
:102D500008957EDF19F083DF09F052CF4BCFB90120
:102D6000CA0143C19F775F77CBDF98F39923B9F30B
:102D70005523B9F3FF27951758F4E52FE91BED30DC
:102D800070F75E3B10F0F1E41CC09034E0F40AC030
:102D9000E92FE51BED3028F79E3B10F0F1E411C060
:102DA000503488F4F9EA88232AF09A95660F771F41
:102DB000881FDAF744232AF05A95220F331F441F45
:102DC000DAF79F1B5F1BFF931F930F93FF92EF9206
:102DD00079018A01BB27AB2F9B01AC0166D097011B
:102DE000A801BF937B018C01AA27BA2FB901CA01A0
:102DF0005CD0AF919701A801EF90FF900F911F91C8
:102E00006BDD5CDFB1D04F9140FF0895552747FD42
:102E1000509509C09B01AC0160E070E080E89FE341
:102E200013CEE8CEE2C074DFE8F39923D9F3940F10
:102E3000511DBBF39150504094F059F0882332F06B
:102E4000660F771F881F91505040C1F79E3F510574
:102E500044F7880F911D9695879597F908955F3FE0
:102E6000ACF0983E9CF0BB27869577956795B79513
:102E700008F4B1609395C1F7BB0F58F711F460FFE8
:102E8000E8CF6F5F7F4F8F4F9F4FE3CF5CCF0BD06B
:102E900015CFDEDE28F0E3DE18F0952309F0AACE88
:102EA000AFCE112450CF2CDFA0F3959FD1F3950F17
:102EB00050E0551F629FF001729FBB27F00DB11DBE
:102EC000639FAA27F00DB11DAA1F649F6627B00D4E
:102ED000A11D661F829F2227B00DA11D621F739F37
:102EE000B00DA11D621F839FA00D611D221F749F45
:102EF0003327A00D611D231F849F600D211D822F8C
:102F0000762F6A2F11249F5750408AF0E1F08823D2
:102F10004AF0EE0FFF1FBB1F661F771F881F9150DF
:102F20005040A9F79E3F510570F064CE0CCF5F3F33
:102F3000ECF3983EDCF3869577956795B795F79512
:102F4000E7959F5FC1F7FE2B880F911D969587959A
:102F500097F908959F938BDE0F9007FCEE5FBFCE2D
:102F600011F40EF44DCE41C0D3DED0F39923D9F342
:102F7000CEF39F57550B87FF46D00024A0E640EACA
:102F8000900180585695979528F4805C660F771FBE
:102F9000881F20F026173707480730F4621B730B91
:102FA000840B202931294A2BA695179407942025B4
:102FB00031254A2758F7660F771F881F20F02617FC
:102FC0003707480730F4620B730B840B200D311D5B
:102FD000411DA09581F7B901842F9158880F9695CE
:102FE000879508959B01AC0152CF9F3F31F09150DE
:102FF00020F4879577956795B795880F911D9695DD
:10300000879597F9089591505040660F771F881F54
:10301000D2F708959F938F937F936F93FF93EF93CE
:103020009B01AC0134DFEF91FF91EDDD2F913F91DA
:103030004F915F912CCF97FB072E16F4009407D089
:1030400077FD09D00E94351807FC05D03EF4909515
:1030500081959F4F0895709561957F4F0895EE0F6C
:10306000FF1F0590F491E02D0994AA1BBB1B51E1B1
:1030700007C0AA1FBB1FA617B70710F0A61BB70BE8
:10308000881F991F5A95A9F780959095BC01CD018D
:103090000895BB274A3031F4992322F4BDE290957C
:1030A00081959F4F0C948618BB272A3051F49923A1
:1030B00042F4BDE290958095709561957F4F8F4F5A
:1030C0009F4F0C946418BB27FA01A62F6217710555
:1030D00081059105330B30FB66F0AA27660F771F39
:1030E000881F991FAA1FA21710F0A21B63953850C2
:1030F000A9F7A05DAA3308F0A95DA19336F7B11135
:10310000B1931082CA010C949F18BB27FB0155276D
:10311000AA27880F991FAA1FA41710F0A41B839534
:103120005051B9F7A05DAA3308F0A95DA1930097AB
:1031300079F7B111B1931192CB010C949F18DC0176
:10314000FC01672F71917723E1F7329704C07C91DE
:103150006D9370836291AE17BF07C8F30895F8941A
:02316000FFCF9F
:1031620000E1000000000800000100000002000071
:10317200000300010002000100030002000300003E
:00000001FF
